:100000000C9440010C9487010C9487010C94870197
:100010000C9487010C9487010C9487010C94870140
:100020000C9487010C9487010C9487010C94CA15D9
:100030000C9486150C94851A0C9487010C948701F6
:100040000C9487010C9487010C9487010C94611A1D
:100050000C9487010C9487010C9487010C94870100
:100060000C9487010C9487010C9487010C948701F0
:100070000C94870105010980A101850319012AB7A4
:1000800000150126B700950175108100C0050C0907
:1000900001A101850419012AA002150126A00295DB
:1000A0000175108100C00660FF0961A10109621598
:1000B0000026FF009520750881020963150026FFC0
:1000C00000952075089102C005010906A1010507E8
:1000D00019E029E7150025019508750181029501B0
:1000E000750881010507190029FF150026FF0095F5
:1000F0000675088100050819012905950575019106
:1001000002950175039101C01E001F00200021000F
:100110002200230001000100010001000100010094
:1001200001000100010001000100010001000100C7
:1001300001000100010001000000000000000000BB
:1001400000000000000000000000000000000000AF
:100150000000000000000000000000007E0F00D43E
:10016000FFFFFFC700000078000000000000000053
:100170002A2B280000000000000000000000000002
:1001800000000029000000002C1E3420212224340D
:100190002627252E362D3738271E1F2021222324DF
:1001A00025263333362E37381F0405060708090A7B
:1001B0000B0C0D0E0F101112131415161718191A17
:1001C0001B1C1D2F3130232D350405060708090A95
:1001D0000B0C0D0E0F101112131415161718191AF7
:1001E0001B1C1D2F3130354C09025B00030100A0A0
:1001F000FA090400000103010100092111010001B5
:100200002240000705810308000A090401000203D7
:1002100000000009211101000122220007058203CC
:100220002000010705030320000109040200010367
:10023000000000092111010001223200070584039A
:1002400020000A1201100100000008CCCC000001BF
:100250000001020001180343004100530045002043
:10026000004B006500790070006100640000000A26
:1002700003630061007300650000000403090400CB
:1002800011241FBECFEFD4E0DEBFCDBF04B603FE06
:1002900027C08091EA019091EB01A091EC01B0910F
:1002A000ED018730904BA740B04BD1F41092EA019A
:1002B0001092EB011092EC011092ED0114BE84B784
:1002C000877F84BF0FB6F894A895809160008861FD
:1002D00080936000109260000FBEE0E0F8E30995A3
:1002E00021E0A0E6B1E001C01D92AA3EB207E1F70D
:1002F00011E0A0E0B1E0EAEDF6E302C005900D9256
:10030000A036B107D9F70E9473160C94341B0C94D5
:1003100000002091E4003091E50095E6A9012091CC
:10032000EC00822F817020FF06C08091E80080FFE2
:1003300006C080E008952091E80022FD1AC0809157
:10034000D501882389F0853089F08091EB0085FD07
:100350000FC02091E4003091E50042175307F9F2F5
:100360009150E1F684E0089582E0089583E00895D5
:1003700081E00895EF92FF920F931F93CF937C013A
:100380008B010E948901C82F811117C08091E8005C
:1003900085FD0BC08091E8008E778093E8000E9475
:1003A0008901882399F3C82F08C0F70181917F0143
:1003B0008093F1000150110949F78C2FCF911F91C3
:1003C0000F91FF90EF9008958091D70187FF13C0A0
:1003D0008091E80082FF06C08091E8008B778093CF
:1003E000E80004C08091D5018111F2CF0895809179
:1003F000D5018823D9F38091E80080FFF8CF809160
:10040000E8008E77ECCF982F9093E900242F762F79
:1004100050E0891731F07091EC002091ED0050917F
:10042000F00021FD07C09F5F953071F78093E900D0
:1004300081E008953091EB003E7F3093EB003091E6
:10044000ED003D7F3093ED003091EB003160309353
:10045000EB007093EC002093ED005093F00020919E
:10046000EE0027FDE0CF80E00895FC018091DD01E2
:100470009091DE0186179707A0F06115710529F4A8
:100480009091E8009E779093E80090E061157105E7
:1004900051F4911108C08091E80082FF32C080E0E1
:1004A0000895BC01F2CF8091D5018823B1F1853048
:1004B000B1F18091E80083FD2EC08091E80082FDBB
:1004C000EACF8091E80080FFE1CF2091F20030E098
:1004D0006115710519F02830310558F091E0283088
:1004E000310509F090E02091E8002E772093E80094
:1004F000CDCF81918093F100615071092F5F3F4F03
:10050000E7CF8091D501882341F0853041F080917B
:10051000E80083FFC0CF81E0089582E0089583E082
:10052000089580E0089508958091CA0108952FB735
:10053000F8948091DF019091E001A091E101B091E8
:10054000E2012FBF08958091B30181111092B30190
:1005500008958091B2019091B101892B9091B001E1
:10056000892B809362019091B301992391F0892B9B
:100570008093620120E084E691E0FC013191CF019B
:1005800031112F5FF1E08A369F07B9F721110E94E0
:10059000A302E091BD01F091BE01309731F00280DD
:1005A000F381E02D82E691E009940895E4E6F1E01C
:1005B0009191891303C0DF0111971C9291E0EA36F3
:1005C000F907B1F70895A4E6B1E0EFEF90E02D91BF
:1005D000821751F0EF3F19F4211101C0E92F9F5FFD
:1005E0009630A9F7EF3F09F408950E2E000CFF0B8B
:1005F000EE59FE4F82830895292F220F920F890F03
:10060000A82FA77086958695869590E065E070E0A6
:100610000E94AC1AFC01E655FE4F50E040E080E03D
:10062000219130E00A2E02C0369527950A94E2F710
:1006300021703327042E01C0220F0A94EAF7822B7F
:100640004F5F5F4F4530510559F70895CF93DF93C2
:10065000362F292F220F920F890F982F9770E1E0E4
:1006600001C0EE0F9A95EAF786958695869590E0FB
:1006700065E070E00E94AC1ADC01A655BE4F50E068
:1006800040E0632F70E08D91ED0121979B01042ED6
:1006900002C0369527950A94E2F721702195282704
:1006A0002E23282728834F5F5F4F4530510559F788
:1006B000DF91CF9108958091A901909178019813CD
:1006C00001C008958F5F8770FACF882341F080952D
:1006D0009091B20189238093B2010C94A9020895EC
:1006E000882339F09091B201982B9093B2010C9429
:1006F000A902089520916F013091700128173907E0
:1007000071F09093700180936F01E091BD01F091C1
:10071000BE01309721F00084F185E02D0994089501
:1007200020916D0130916E012817390771F0909377
:100730006E0180936D01E091BD01F091BE01309793
:1007400021F00680F781E02D0994089590E080E083
:100750000E94900390E080E00E947A031092B10121
:100760001092B0010C94A9026093E6017093E70126
:100770008093E8019093E9010C94A6030F931F93D3
:100780006091E6017091E7018091E8019091E901A3
:100790008B019C0106701127222733270630110593
:1007A0002105310529F468601F910F910C94B40361
:1007B000677FFACF0F931F9341E050E060E070E055
:1007C00004C0440F551F661F771F8A95D2F7CB01CF
:1007D000BA0160957095809590950091E601109111
:1007E000E7012091E8013091E90160237123822320
:1007F00093231F910F910C94B4039091AF018095B6
:1008000089238093AF01282F277071F4282F082E99
:10081000000C330B9217130639F085958595859555
:100820000E94DA031092AF0108950F931F9341E0E5
:1008300050E060E070E004C0440F551F661F771F52
:100840008A95D2F78091E6019091E701A091E801A5
:10085000B091E9018A019B01082B192B2A2B3B2B14
:10086000C901B8011F910F910C94B4036093B401B6
:100870007093B5018093B6019093B7010C94A603D1
:10088000E091BD01F091BE01309721F00190F0811F
:10089000E02D099480E00895882309F452C082383D
:1008A00071F40E94400481FF4CC089E30E94E3027E
:1008B0000E94A90289E30E94D6020C94A9028338FF
:1008C00059F40E94400480FF3CC083E50E94E3028B
:1008D0000E94A90283E5EFCF843859F40E944004B6
:1008E00082FF2FC087E40E94E3020E94A90287E4EE
:1008F000E2CF9CEF980F913AF0F290E2980F983087
:1009000088F4877021E030E0A90102C0440F551F30
:100910008A95E2F7CA0180959091B201892380936C
:10092000B201CBCF9BE5980F933020F490E080E0AC
:100930000C949003885A873120F490E080E00C9466
:100940007A030895F894E82FE295EF70F0E031A172
:10095000282F2F7081E090E001C0880F2A95EAF7D8
:10096000982F9095932391A392A1892B82A3789499
:1009700008959091BB0192FF06C0282F287128305E
:10098000F9F4877F846093FF06C0282F28712831EF
:10099000F1F4877E84612091BC0120FF06C0382FCE
:1009A00038713830D9F4877F816021FF06C0282F45
:1009B00028712831D1F4877E816194FD877E089566
:1009C000282F24712430F9F68B7F8860DCCF282F04
:1009D0002471243101F78B7E8861DDCF382F31718E
:1009E000313019F78E7F8860E0CF282F21712131B7
:1009F00021F78E7E8861E1CFCF9384E090E00E9462
:100A0000F21AC82F81E290E00E94F21A982F8C2FE0
:100A1000CF9108950F931F93CF93DF93282F862FA5
:100A200090E066E070E00E94AC1AC42FD0E0CC0FDA
:100A3000DD1FC80FD91F822F90E06CE070E00E948C
:100A4000AC1AC80FD91FCE0186960E94F21A082F41
:100A500010E0102F0027CE0187960E94F21A98010D
:100A6000282BC901DF91CF911F910F910895462F37
:100A7000843038F4723028F4633018F4672F0C9403
:100A80000A0590E080E00895CF93DF930E94370538
:100A9000EC0182389105A9F1D8F58133910509F46B
:100AA00096C048F58932910509F48AC08A9709F4FD
:100AB00095C0C11522E5D20708F0B6C0C11531E5D1
:100AC000D30708F02BC1C83ED10508F09CC0C03E3A
:100AD000D10560F5C83AD10508F087C0C53AD105FF
:100AE00008F0F2C0C130D10509F12097F9F0C43007
:100AF000D105E0F440C08533910509F45AC0C99787
:100B0000C1F68091BB01837089F0C0EED0E00EC0C9
:100B1000833E910599F170F4803E910501F1823E8A
:100B2000910539F68091BB0182FD21C0CE01DF9194
:100B3000CF910895863E910561F1873E910571F14F
:100B4000843E910509F0B5CF8091BC0181FFEECFC5
:100B50008091BB01C7EED0E084FD0DC0E7CF80914E
:100B6000BB0180FD0FC19091BC0190FFDFCFC3EEB0
:100B7000D0E084FFDBCFD0E0C0E0D8CF8091BB01D4
:100B800082FD03C19091BC0190FDBFCF84FFCECF09
:100B9000F2CF8091BB0183FDDDCFC8CF8091BB0137
:100BA00083FDF6C09091BC0191FFF0CFC4EED0E080
:100BB000BDCF8091BB0185FFB9CFC9E2D0E0B6CFF0
:100BC0008091BB0185FFB2CFC5E3D0E0AFCF80916C
:100BD000BB0186FFABCFCAE2D0E0A8CF8091BB01BA
:100BE00086FFA4CFC1E3D0E0A1CFCF3BD10518F65B
:100BF000C85AD0E0CC0FDD1FC25FDE4F0990D8810C
:100C0000C02DD46493CFC11540E5D40708F067C068
:100C1000C11580E4D80708F05FC0CE019A95811510
:100C20009F4108F483CFA7CFC11536E5D30730F530
:100C3000C11545E5D40708F08CC0C11584E5D80777
:100C400008F082C09C2F969596959E0123703327BD
:100C5000C115D34508F467C0C1E0D0E002C0CC0F95
:100C6000DD1F2A95E2F7892F90E075E0880F991F24
:100C70007A95E1F7C82BD92BDA6858CFC1158AE5E8
:100C8000D80778F4C11529E5D20708F06DC0C11561
:100C900038E5D30708F46FCFDC2FCC27C06FD06ABC
:100CA00045CFCE0190568115904208F064CF8D2F2C
:100CB0008F710E94B90490E0982F882788279F7130
:100CC0009C012C2BE9014EC0C55AD0E0C55FDE4F18
:100CD000C881D0E0D0642ACFDF70D06A27CFCE01A0
:100CE000A4E096958795AA95E1F783702C2F269519
:100CF0002695237030E0B5E0220F331FBA95E1F757
:100D0000382B8C2F8370C1E0D0E002C0CC0FDD1FE8
:100D10008A95E2F7C22BD32BDC6808CFDC2FCC27D7
:100D2000C16FD06A03CFC1E0D0E002C0CC0FDD1F9D
:100D30002A95E2F7892F90E0E5E0880F991FEA9560
:100D4000E1F7C82BD92BE8CFDC2FCC27C46FD06AB2
:100D5000EDCE8C2F0E94B904C82FD0E0DC2FCC2719
:100D6000CC27DF71D062E2CE8C2F8F700E94B90445
:100D700034E0D695C7953A95E1F7CF709C2FEC01FA
:100D8000D069D4CEC9E3D0E0D1CEC2EED0E0CECE91
:100D9000C6EED0E0CBCEBF92CF92DF92EF92FF9221
:100DA0000F931F93CF93DF938C01C090E601D090F7
:100DB000E701E090E801F090E9018091B4019091A1
:100DC000B501A091B601B091B701C82AD92AEA2A83
:100DD000FB2ACFE1D0E0BC2ED701C6010C2E04C007
:100DE000B695A795979587950A94D2F780FD0EC082
:100DF000219788F7B12C8B2DDF91CF911F910F9107
:100E0000FF90EF90DF90CF90BF900895B8018C2FA6
:100E10000E944405019761F3EECFCF93DF93EC017D
:100E20000E94CB06BE01DF91CF910C9444050E9435
:100E30000D07292F2F7092959F7092509E3078F455
:100E4000E92FF0E0EA5CF44E0C94D11A803F19F0DF
:100E500020F4883E20F481E00895843FE1F380E0AF
:100E60000895883EC0F3813FD1F7F5CF822F869554
:100E70008695869508956F927F928F929F92AF92FA
:100E8000BF92CF92DF92EF92FF920F931F93CF9377
:100E9000DF9388E0C82E81E0D82E98E3E92EF12C6C
:100EA000E7012C9736011BC0F50185909490692DC0
:100EB000C8010E94001B682DC80101960E94001BFA
:100EC00082E0A80EB11C0E5F1F4FC017D10761F75B
:100ED00086E0680E711C2696CE15DF0529F08E017E
:100EE000065011095301E0CF7E018CE0E80EF11CA1
:100EF0008CE0C80ED11C88E6E816F10489F6DF9173
:100F0000CF911F910F91FF90EF90DF90CF90BF9006
:100F1000AF909F908F907F906F900895CF93DF93C5
:100F2000C6E5D0E060E0CE010E94001B2196C1150D
:100F300084E0D807B9F7DF91CF910895CF93DF937D
:100F400000D00F92CDB7DEB79091D501943011F556
:100F500089837B836A839093E9008FEF9091E80007
:100F6000815095FD06C095ED9A95F1F7000081112D
:100F7000F5CF8091E80085FF0DC050E040E063E0D0
:100F800070E0CE0101960E94BA018091E8008E7750
:100F90008093E8000F900F900F90DF91CF9108950C
:100FA000BC0184E00C949E07BC0183E00C949E0776
:100FB000CF93DF93EC0181E08093E9008FEF909174
:100FC000E800815095FD06C095ED9A95F1F7000077
:100FD0008111F5CF8091E80085FF14C050E040E01A
:100FE00068E070E0CE010E94BA018091E8008E773F
:100FF0008093E80088E0FE01ABECB1E001900D9237
:101000008A95E1F7DF91CF91089581E08093E00028
:1010100080E28093D8001092C9008FE19EE401978E
:10102000F1F700C0000087E090EBDC018093EA015B
:101030009093EB01A093EC01B093ED0188E19CE06B
:101040000FB6F894A895809360000FBE909360004F
:10105000FFCFCF93C82F882309F488C08238C1F40A
:101060000E94400481FD82C089E30E94E3020E9445
:10107000A9022FEF81EE94E0215080409040E1F7EB
:1010800000C0000089E30E94D602CF910C94A9020F
:101090008338A1F40E94400480FD68C083E50E946B
:1010A000E3020E94A9022FEF81EE94E021508040DC
:1010B0009040E1F700C0000083E5E5CF8438A1F45B
:1010C0000E94400482FD52C087E40E94E3020E9415
:1010D000A9022FEF81EE94E0215080409040E1F78B
:1010E00000C0000087E4CFCF8CEF8C0F813A68F40A
:1010F000E4E6F1E08191C81799F121E0EA36F207C0
:10110000C9F78C2F0E94E302C0CF80E28C0F883099
:1011100068F4C77021E030E001C0220FCA95EAF7F9
:101120008091B201822B8093B201AFCFEBE5EC0F3F
:10113000E33040F4F0E0E55FFE4F808190E0CF9136
:101140000C949003C85AC73188F4EC2FF0E0EE0FEE
:10115000FF1FE25FFE4F80819181CF910C947A0353
:101160008C2F0E94D6020E94A902CBCFCF91089566
:101170001F93CF93DF93182FD0E0C0E0893311F491
:10118000C0E5D0E0812F0E942908209731F4812FFB
:10119000DF91CF911F910C944C048FE99FE0019750
:1011A000F1F700C000002197F0CF0F931F93CF936A
:1011B000DF93C62FD42F022FFC0182818823A1F058
:1011C0006093E5010E9497029093E4018093E3010C
:1011D000C77081E001C0880FCA95EAF7DF91CF910F
:1011E0001F910F910C9470038091E501681340C02A
:1011F0002091E3013091E4014FB7F8948091DF0131
:101200009091E001A091E101B091E2014FBF821BFA
:10121000930B883C910560F510E21D0F6D17B9F036
:1012200080E2860F883040F4C77081E001C0880FEB
:10123000CA95EAF70E946503183048F481E09D2FB3
:10124000977001C0880F9A95EAF70E947003802F6B
:101250000E94B808183098F4D77081E001C0880F58
:10126000DA95EAF7DF91CF911F910F910C94650306
:10127000C77081E001C0880FCA95EAF7F3CFDF910C
:10128000CF911F910F910895BF92CF92DF92EF926D
:10129000FF920F931F93CF93DF938CE3E82E81E0AF
:1012A000F82EC9EBD1E0C12CD12C01E010E0F70100
:1012B00081917F01F894E82FE295EF70F0E021A191
:1012C0008F70A80102C0440F551F8A95E2F7CA012A
:1012D000922F982B91A392A18095892382A3789431
:1012E00000C0EEE3F1E030E020E0B12C4191A42F0A
:1012F000A295AF70B0E090968C9190E04F7002C0D4
:10130000959587954A95E2F780FD4BC0802F022E78
:1013100001C0880F0A94EAF7B82A2F5F3F4F2330A5
:10132000310521F7F701319780810E94A204C11095
:1013300003C050EA5A95F1F78881B816A1F1B88236
:1013400081E0D82A219681E0C81228C0DD2069F109
:10135000C0926C010E94970290936B0180936A0186
:1013600020916A0130916B014FB7F8948091DF01B1
:101370009091E001A091E101B091E2014FBF821B89
:10138000930B0697B0F08091B9018093C7018091CB
:10139000BA018093C80110926C010BC0CC24C39495
:1013A00086CF80E0B9CF80E0CCCF80916C018111F5
:1013B000D7CF8D2DDF91CF911F910F91FF90EF909F
:1013C000DF90CF90BF9008956BEE7EEF90E080E0CD
:1013D0000E941E1B60E082E090E00E94001B60E023
:1013E00083E090E00E94001B1092B4011092B501BE
:1013F0001092B6011092B70160E084E090E00E9484
:10140000001B60E081E290E00E94001B60E085E04C
:1014100090E00E94001B60E086E090E00E94001BCC
:101420006FEF87E090E00E94001B40E050E0BA01BF
:1014300088E090E00E94121B60E08DE090E00E9446
:10144000001B40E050E0BA0188E190E00E94121BCE
:1014500060E087E190E00E94001B40E050E0BA01AC
:101460008CE190E00E94121B60E080E290E00E941C
:10147000001B40E050E0BA0188E190E00E94121B9E
:1014800040E050E0BA018FE090E00E94121B40E083
:1014900050E0BA0183E190E00C94121B1092B2016B
:1014A000E4E6F1E086E0DF011D928A95E9F70C940D
:1014B000A6031F93CF93DF93CDB7DEB7AA970FB6DE
:1014C000F894DEBF0FBECDBF87ED91E02091F10013
:1014D000DC012D93CD01B1E08F3D9B07B9F78091E1
:1014E000D801833009F46FC0B8F4813009F446C0E4
:1014F000823009F4B0C08091E80083FF38C1809148
:10150000D7019091D8019A3008F031C1E92FF0E06D
:10151000EC5BF44E0C94D11A8A3009F48BC08B30FA
:1015200009F46EC0893039F78091D701813219F7FB
:101530008091DB019091DC01009711F00297D9F6C0
:101540008091E800877F8093E8008091E80082FF27
:1015500035C08091F200823029F48091F1008B7FB8
:10156000813021F48091F1008093CA018091E800DC
:101570008B778093E8000E94E401BDCF8091D70172
:10158000813A09F0B8CF8091E800877F8093E80026
:101590008091DB019091DC01892B61F468E08BEC98
:1015A00091E070E00E9435028091E8008B77809393
:1015B000E800A1CF60E090E080E0F3CF8091D5011A
:1015C0008111C3CF98CF8091D701813A09F093CF91
:1015D0008091DB019091DC01892B09F08CCF809107
:1015E000E800877F8093E8008091E80080FFFCCFCF
:1015F00080910A018093F1008091E8008E77B9CF45
:101600008091D701813209F076CF8091DB019091F2
:10161000DC01892B09F06FCF8091E800877F8093F0
:10162000E8000E94E4018091D90180930A010E94A0
:101630004E0A61CF8091D701813209F05CCF809151
:10164000E800877F8093E8000E94E4018091DA013E
:101650008093C90150CF8091D701813A09F04BCFD7
:101660008091E800877F8093E8008091E80080FF08
:10167000FCCF8091C901BECF803899F0823809F043
:1016800076C08091DB018F70853008F070C0809348
:10169000E9008091EB0085FB882780F91092E90032
:1016A00006C08091D3019091D401911182609091F4
:1016B000E800977F9093E8008093F1001092F1008A
:1016C0008091E8008E77B4C1882309F4A1C18230EB
:1016D00009F04DC08091D9018111A5C18091DB0134
:1016E0008F702FEF280F243008F041C08093E9005D
:1016F0002091EB0020FF97C1933031F48091EB00F3
:1017000080628093EB008FC19091EB009061909389
:10171000EB0021E030E001C0220F8A95EAF7209328
:10172000EA001092EA008091EB008860EACF811114
:101730001EC01091D9011F778091E3008078812B22
:101740008093E3008091E800877F8093E8000E9407
:10175000E4018091E80080FFFCCF8091E300806885
:101760008093E30082E0111183E08093D5018091A2
:10177000E80083FF0AC08091E800877F8093E8003B
:101780008091EB0080628093EB00AA960FB6F894EC
:10179000DEBF0FBECDBFDF91CF911F91089580585E
:1017A000823028F72091D9013091DA012C3DE3E015
:1017B0003E07A1F583E08A838AE289834FB7F894D4
:1017C000DE01139620E03EE051E2E32FF0E050937B
:1017D0005700E49120FF03C0E295EF703F5FEF7088
:1017E0008E2F90E0EA30C0F0C7968D939D932F5FC7
:1017F000243159F74FBF8091E800877F8093E8003C
:101800006AE270E0CE0101960E9435028091E80004
:101810008B778093E800ABCFC096E7CF8091DB0158
:101820009091DC01432F55274330510509F44AC0FC
:1018300078F54130510509F47AC08BE590E0E8EE87
:10184000F1E04230510509F092CF2091E800277F66
:101850002093E8002091DD013091DE01821793078B
:1018600008F49C0140E02115310509F065C04111E3
:1018700063C08091E80082FDC9CF8091D5018823A3
:1018800029F2853019F28091E80083FFF2CFBECFB4
:101890004132510509F43CC04232510509F067CF8D
:1018A0008330910508F063CFFC01EE0FFF1FEC5A67
:1018B000FE4F0190F081E02D8F5A9E4FDC018C91FC
:1018C00090E01AC0332721303105D1F021153105C0
:1018D00061F02230310509F04ACFE5E5F2E0E4910C
:1018E0008E2F90E0E5E5F2E007C0EBE7F2E0E4914F
:1018F0008E2F90E0EBE7F2E0009709F438CFA5CF08
:10190000EFE6F2E0E4918E2F90E0EFE6F2E0F4CF24
:101910008330910508F02BCF880F991FFC01E65A00
:10192000FE4F0190F081E02D89E090E08ECF82E1C2
:1019300090E0E3E4F2E089CF8091D501882309F4B7
:1019400065CF853009F462CF8091E80083FD5ECFDA
:101950008091E80082FD8DCF8091E80080FF83CFE9
:101960008091F20090E02115310519F08830910541
:1019700050F041E0089709F040E08091E8008E7750
:101980008093E80070CF44914093F100319621504C
:1019900031090196E8CF803809F0E9CE8091E8005E
:1019A000877F8093E8008091D6018093F10088CEF4
:1019B0008111DDCE1091D901123008F0D8CE80917E
:1019C000E800877F8093E8001093D6010E94E4012D
:1019D000112311F084E005C08091E30087FDFACF68
:1019E00081E08093D50142E061EC81E00E94030236
:1019F00042E261EC84E00E94030242E261EC82E098
:101A00000E94030242E260EC83E00E940302AFCE38
:101A10008091D901813009F0AACE81E0933009F09C
:101A200080E08093D4011092E9008091E800877FE4
:101A30008093E8000E94E4019ACE3F924F925F9219
:101A40006F927F928F929F92AF92BF92CF92DF92CE
:101A5000EF92FF920F931F93CF93DF9300D000D0AC
:101A60000F92CDB7DEB78C01FC0183819481892B65
:101A700031F08081918189238F3F09F06CC50F90EF
:101A80000F900F900F900F90DF91CF911F910F91BA
:101A9000FF90EF90DF90CF90BF90AF909F908F908E
:101AA0007F906F905F904F903F9008950E94CB067B
:101AB000F82E682F89819A810E94260369817A8194
:101AC0008F2D0E9437057C01F8018281882309F45B
:101AD00035C5970122513F452031310508F001C538
:101AE0008FEF93E00E94F21AFEEEEF0E46E5842E91
:101AF000912C882381F18091AF01877009F4BFCFC9
:101B0000F8018281882309F4BACF82E00F900F9008
:101B10000F900F900F90DF91CF911F910F91FF9039
:101B2000EF90DF90CF90BF90AF909F908F907F907D
:101B30006F905F904F903F900C94FD03811424E0D0
:101B40009206C9F2C4010E94F21A811101C0EA94FE
:101B50003FEF831A930AE110F1CF1C821B824424C9
:101B6000439474016FEFE61AF60AC4010E94F21A58
:101B700089831A82882309F4BECF9FEF980F933090
:101B800000F58A83498272E0870E911CC7010E948A
:101B9000F21A8B83882309F4AECFCE0101967C0123
:101BA000F70120812223E9F2213009F04AC0918116
:101BB0008281913041F4F2E0EF0EF11C0E94B808EE
:101BC00009C04701EACF923049F422E0E20EF11C4D
:101BD0000E9429083FEFE31AF30AE2CF933031F471
:101BE00032E0E30EF11C0E944C04F4CF943021F05B
:101BF0006FEFE61AF60AEECF72E0E70EF11C50E046
:101C000040E0D7011196F701D180682F6053770B20
:101C10009B016A30710550F041505109D8F28FE9AB
:101C20009FE00197F1F700C00000F6CFCA016AE01B
:101C300070E00E94AC1AA901480F591F8D2D7D013B
:101C4000E0CFE22FF0E0E859FE4F5490822F8695C6
:101C50008695869590E0FC01E85AFE4F64902770C7
:101C6000712C022E02C0759467940A94E2F7E1E0A9
:101C70006E227724FC01E85BFE4FA490B12C022E6B
:101C800002C0B594A7940A94E2F7F1E0AF22BB2416
:101C9000FC01E85CFE4FC490D12C02C0D594C794DF
:101CA0002A95E2F721E0C222DD246114710419F0C3
:101CB00081EE0E942908A114B10419F086EE0E9459
:101CC0002908852D0E94B808AB2819F086EE0E94DD
:101CD0004C04672819F081EE0E944C04CD2809F4C9
:101CE00079CF8CE26BCF81E00E9415040E94BE0385
:101CF00002CF81E00E94DA03F9CF82E0F5CF25EF31
:101D0000E2162CE5F20609F467C008F461C066EF3C
:101D1000E6166CE5F60609F463C0882309F42CC4C2
:101D20001092E50172E0E7167CE5F70608F451C170
:101D300096E1E9169CE5F90638F097012A5F3C45E3
:101D40002930310508F045C10E94FC049093BC0184
:101D50008093BB01E0E1EE16ECE5FE0609F408C154
:101D600008F087C028E0E2162CE5F20609F4F2C07C
:101D700008F053C064E0E6166CE5F60609F4E2C02C
:101D8000B0F582E0E8168CE5F80609F4D5C080913C
:101D9000BB01826093E0E9169CE5F90609F4CFC027
:101DA0006091BB01F090BC0184E090E00E94001BB8
:101DB0006F2D81E290E00E94001B0E944E0A9BCE94
:101DC00027E245EE65EEB6C326E241EE60EEB2C311
:101DD00027E245EE64EEAEC326E241EE62EEAAC310
:101DE00027E245EE66EEA6C328E241E0EBCF809104
:101DF000BB018061E6E0EE16ECE5FE0609F49FC04B
:101E00008091BB018860F7E0EF16FCE5FF0608F45F
:101E100096C08091BB01806292C08091BB018D7F92
:101E20002CE0E2162CE5F20609F489C078F48091E2
:101E3000BB018C606AE0E6166CE5F60609F47FC02B
:101E400008F48CC08091BB018E7F79C08EE0E816CB
:101E50008CE5F80609F488C08091BB018B7F9FE078
:101E6000E9169CE5F90608F46AC08091BB018F7EF3
:101E700066C0EBEFEE16ECE5FE0609F467C068F508
:101E800023E1E2162CE5F20609F47AC090F461E150
:101E9000E6166CE5F60609F46FC072E1E7167CE51C
:101EA000F70609F07DCF0E944E0A8091BB018F7723
:101EB00046C085E1E8168CE5F80609F469C008F427
:101EC0007DC08091BC018160EAEFEE16ECE5FE0674
:101ED00009F066CF8093BC0163CFFFEFEF16FCE5FE
:101EE000FF0609F451C0A0F48091BC018D7F3DEF45
:101EF000E3163CE5F30671F38091BC018E7F6EEF33
:101F0000E6166CE5F60630F38091BC018360E2CF03
:101F100071E0E7167DE5F70609F459C008F444C0FE
:101F200060E092E0E9169DE5F90609F039CF8EE010
:101F300090E00E94001B34CF8091BB0181608093B0
:101F4000BB012ECF8091BB018460F9CF8091BC0191
:101F50008260C0CF8091BB018064F1CF0E944E0AA5
:101F60008091BB018068EBCF8091BB01877FE7CF79
:101F70008091BB018F7DE3CF8091BB018F7BDFCF51
:101F80008091BB01837FDBCF8091BC018C7FA2CF8E
:101F90008091BB0182FB992790F921E0922790FB69
:101FA00082F990FB83F9CBCF8091BC01982F90955B
:101FB00091708E7F892B90FB81F98CCF0E944E0A05
:101FC0009091BB01892F97FB87F98058B8CF61E0CA
:101FD000AECFE6E1EE16ECE5FE0609F0DAC280913E
:101FE000B2018A7A91E009F490E090937101811135
:101FF00006C089E20E94E3020E94A9027CCD85E32B
:10200000F9CF85E3C3C20E944E0AFFEF24E33CE010
:10201000F15020403040E1F700C000000E94050868
:102020000E94E40968CDC7010E94FC02D82ECAC2F2
:102030002F2D2F70A22E8F2D807F19F0A29490EF5C
:10204000A922DD20C9F0AA2069F080E28E0D883037
:1020500010F081100BC08091B201A82AA092B201A9
:102060000E94A9028E2D0E94290819C08091B101F9
:10207000A82AA092B101F4CF8E2D0E944C04AA2070
:1020800071F0A09480E28E0D883010F081103DC078
:102090008091B201A822A092B2010E94A902632DF0
:1020A0006850770B6430710510F40E944004CC2016
:1020B00009F4E5CC8091AF0180FDE1CCF8011282FA
:1020C0008595859585950E941504C8010E941D0D72
:1020D0008091AF018595859585950F900F900F9014
:1020E0000F900F90DF91CF911F910F91FF90EF9084
:1020F000DF90CF90BF90AF909F908F907F906F9028
:102100005F904F903F900C94DA038091B101A82228
:10211000A092B101C2CF3F2D3F70932E8F2D807FB3
:10212000803219F0929480EF9822882071F061E05B
:10213000861661F1DD20B9F1AA2071F1F8018581DF
:1021400080FF90CF8F70858327C0DD2091F0909124
:10215000B301892D892BA11003C00E9470039FCF6A
:1021600071E0A712FACF981709F499CF8093B301C1
:1021700096CFA11006C00E94A302892D0E9465037C
:102180008ECF81E0A81609F48ACFF5CFDD2031F09B
:1021900095E09A1508F483CF892DDFCFE4E0EA15A6
:1021A00008F47DCFEACFAA2041F3F9E38F1209C0EA
:1021B0002FEF37EE63E0215030406040E1F700C080
:1021C00000008E2D0E944C046ACF8F2D8695869537
:1021D000837061F0813009F062CFC7019370D11034
:1021E00002C090E080E00E947A0359CFC70193704B
:1021F000D11002C090E080E00E94900350CF8F2D5C
:10220000837009F066C0D1104ACF8E2D82958695D5
:102210008770880F880F6E2D6F70462E512C712C91
:10222000612C082E04C0440C551C661C771C0A94B3
:10223000D2F740E050E0BA01E4FE0FC04FE050E0BA
:1022400060E070E004C0440F551F661F771F8A9539
:10225000D2F740955095609570958F2D869586950F
:102260008370823019F1D8F48090B4019090B50158
:10227000A090B601B090B701813069F0442955298A
:1022800066297729CB01BA01682179218A219B210E
:102290000E94360404CF482859286A287B28CB019D
:1022A000BA016429752986299729F2CF442955292D
:1022B000662977294090B4015090B5016090B6012D
:1022C0007090B701CB01BA01642575258625972545
:1022D000DFCF8695DD2011F08F2D8170882309F4E2
:1022E000DECE8E2D829586958770880F880F6E2D95
:1022F0006F70462E512C712C612C082E04C0440C9A
:10230000551C661C771C0A94D2F740E050E0BA01D5
:10231000E4FE0FC04FE050E060E070E004C0440F06
:10232000551F661F771F8A95D2F740955095609587
:1023300070958F2D869586958370823019F1D8F42B
:102340008090E6019090E701A090E801B090E9014B
:10235000813069F04429552966297729CB01BA01D2
:10236000682179218A219B210E94B40398CE4828B4
:1023700059286A287B28CB01BA0164297529862946
:102380009729F2CF44295529662977294090E601FB
:102390005090E7016090E8017090E901CB01BA012B
:1023A0006425752586259725DFCF7F2D7F70F72E35
:1023B000DD2029F0872F0E9415048E2DCECE8E2D84
:1023C0000E9465038F2D0E94DA0369CE8E2D92EF55
:1023D000891609F452C0981578F0E0EF8E1621F1B5
:1023E000F1EF8F1609F441C0DD2009F46AC0A11095
:1023F00039CE8F2D8F713EC023EF821609F442C073
:1024000034EF8312F1CFDD2009F450C08F2D8F718E
:10241000F82E0E9415048F2D880F880F880F836077
:102420008093AF018F2D26C0DD20D1F064E06A15C6
:1024300008F435CE2F2D2F7161E070E080E090E040
:1024400004C0660F771F881F991F2A95D2F7409006
:10245000E6015090E7016090E8017090E901A0CF9B
:1024600075E07A1508F41BCEE5CF8F2D8F71DD2036
:1024700009F4A9CF0E94150412CE8F2D8F71DD2093
:10248000C9F3A1CF60E070E0CB01DD2009F46CCF8F
:102490002F2D2F7161E070E080E090E004C0660FA6
:1024A000771F881F991F2A95D2F75ECF81E00E947F
:1024B000FD0391E09A1508F0F2CD82E00E94FD0341
:1024C000EECDAA2059F0893309F07BCEEFEFF7EE7D
:1024D00023E0E150F0402040E1F771CE8F2D8F7165
:1024E00072CFF0E1EF16FFE5FF0609F4FCCB21E126
:1024F000E2162FE5F20609F400CC63EFE6166CE570
:10250000F60609F461CC08F0FACB98EDE9169CE5E3
:10251000F90609F455CCE9EDEE16ECE5FE0609F4F2
:1025200063CCF7EDEF16FCE5FF0609F0F6CB26E2EB
:1025300041EE61EEC8010E94D508DDCA30E1E31624
:102540003FE5F30609F4D5CB61E1E6166FE5F60643
:10255000A1F682E0CFCB85E0DE01119601900D92CD
:102560008A95E1F7F801228189819A8121119ECA19
:102570000E94FC02F82EA2CAF6E1EF16FCE5FF0667
:1025800099F48091710181113CCD89E20E94D602BB
:1025900033CDE1142CE5F20609F435CD3EEDE3161A
:1025A0003CE5F30609F43CCDF801E080F180882396
:1025B00009F439CDC7010E94CB06D82E682FC70178
:1025C0000E942603B7018D2D0E9444057C01882EB0
:1025D000F801D280A580A2943FE0A3228091AF01B0
:1025E0008770A1F0CD2CDD2091F08F2D807F80347D
:1025F00021F080E28E0D883048F082E00E94FD03D9
:102600008091AF018770CC24C3948111C12C3F2CE1
:1026100032942FE03222FBE0F31508F440CDE32D95
:10262000F0E0E25BF44E0C94D11A1F93CF93DF934A
:1026300080917701807FA1F480917401882381F0DB
:102640002091A9011091780140917201A09173012C
:10265000C0917501D0917601B42FBA23121304C032
:10266000DF91CF911F91089530E0209711F0BF3F87
:1026700021F42F5F3F4F2770F1CFC90166E070E072
:102680000E94AC1AFC01E758FE4F81818A13F1CFFA
:1026900080818413EECF82818111EBCF838194817D
:1026A0008C1B9D0B883C910520F7809177018F70E2
:1026B000806180937701C90166E070E00E94AC1AE6
:1026C000FC01E258FE4F90819F709061908382E7F9
:1026D00091E00E941D0DDF91CF911F910C945B033F
:1026E000AF92BF92CF92DF92EF92FF920F931F9320
:1026F000CF93DF93CDB7DEB761970FB6F894DEBF07
:102700000FBECDBF8C0185E0F801DE011D96019062
:102710000D928A95E1F7F80120813181E28082E70C
:10272000A82E81E0B82E6091750170917601611537
:10273000710509F43BC19091720140917301892F99
:1027400084238F3F09F432C1C380D480F090740198
:10275000F601E61BF70BFF2009F4EFC0809177012B
:10276000582F507FE83CF10508F0AFC0511178C0F8
:10277000FE2C431321C092131FC0E1101DC08F70A7
:10278000806180937701C5010E941D0D80917701C2
:10279000F80185838F2D61960FB6F894DEBF0FBECA
:1027A000CDBFDF91CF911F910F91FF90EF90DF9000
:1027B000CF90BF90AF900895CD2829F0822F83232A
:1027C0008F3F09F011C180E0F82FF170DF2EE0910A
:1027D000A9014091780180FD20C0EE20D9F28091BE
:1027E0007701816080937701F12CD4CFF0E0CF01A5
:1027F00066E070E00E94AC1ADC01A758BE4F11964B
:102800008C911197381307C08C91281304C012962D
:102810008C91E812E2CF3196E770E413E7CF2D8771
:102820003E878D859E850E940D07292F22952F704A
:10283000223050F0243078F49F7051F0F8019581E7
:10284000907F31F4D12C0AC09F7011F08823D1F30E
:10285000805E8830B8F3C8010E941D0DFD2C9ACF10
:10286000431306C0921304C0F801EE2009F480C09F
:102870002D873E878D859E850E941707882309F145
:10288000EE20F9F080917701803270F02091720192
:102890003091730138872F831986DB86CA868C872F
:1028A000CE0107960E941D0D86E0F801A2E7B1E077
:1028B00001900D928A95E1F70E941513FF24F3947D
:1028C00069CFC8010E941D0DF9CF51110AC082E7DE
:1028D00091E00E941D0D86E0F50111928A95E9F7BD
:1028E00083CF43130FC092130DC0E1100BC0F8014A
:1028F0008583C8010E941D0D86E0F50111928A951D
:10290000E9F748CF2D873E878D859E850E94170762
:102910008823B9F2EE20A9F280917701803220F26B
:1029200020917201309173013A8329831B82DD82E9
:10293000CC828E83CE010196B5CFE83CF105E0F65E
:10294000FE2CEE2009F4BDCF43131FC092131DC00F
:102950008091770180FD10C0982F907F69F0F80179
:102960008583903F31F0982F907F905F8F70892BF7
:102970008583C8010E941D0D86E0F801A2E7B1E041
:1029800001900D928A95E1F705CF2D873E878D85C1
:102990009E850E941707811187CF80917701816002
:1029A00080937701C8010E941D0DF4CEEE2009F43A
:1029B00088CF2D873E878D859E850E941707F82E2C
:1029C000882309F47ECF86E0F801A2E7B1E0019008
:1029D0000D928A95E1F780917201909173010E94A6
:1029E0000D070E941513D6CE81E08E25EDCECF9334
:1029F000DF93CDB7DEB767970FB6F894DEBF0FBE93
:102A0000CDBF342F4B8B252F5C8B6D8B7E8B8F8BAB
:102A10008E899F8961111092B1011A8A198A3D87A6
:102A20002E876F87998B888B86E0FE013D96DE01AD
:102A3000179601900D928A95E1F7CE0107960E94B4
:102A40007013811112C086E0FE013796DE011196E7
:102A500001900D928A95E1F78A859B85892B29F053
:102A60008F81988589238F3FB1F58091A90190913D
:102A7000780189131CC067960FB6F894DEBF0FBEAD
:102A8000CDBFDF91CF91089566E070E00E94AC1A4F
:102A9000DC01A758BE4F96E0FE01319601900D92E1
:102AA0009A95E1F7209378010E945B03DECF90E0D6
:102AB00066E070E00E94AC1A87589E4F0E94701327
:102AC0008823C9F28091A90190E001968770992727
:102AD0008093A901CACF8091780190E09C012F5F7B
:102AE0003F4F277033274091A9014217130661F623
:102AF0000E944E0A109278011092A90186E0E2E746
:102B0000F1E0DF011D928A95E9F7AFCF1F920F9296
:102B10000FB60F9211242F933F934F935F936F93B0
:102B20007F938F939F93AF93BF93CF93DF93EF9355
:102B3000FF93D091E900DF708091EC00C82FC17045
:102B400080FDC0E81092E9008091F000877F8093BB
:102B5000F00078940E94590A1092E9008091F000E8
:102B600088608093F000CD2BCF70C093E900FF9177
:102B7000EF91DF91CF91BF91AF919F918F917F9115
:102B80006F915F914F913F912F910F900FBE0F90DA
:102B90001F9018951F920F920FB60F9211242F932A
:102BA0003F934F935F936F937F938F939F93AF93D5
:102BB000BF93EF93FF938091E10082FF09C0809162
:102BC000E20082FF05C08091E1008B7F8093E100ED
:102BD0008091E10080FF17C08091E20080FF13C068
:102BE0008091E2008E7F8093E2008091E20080611C
:102BF0008093E2008091D80080628093D80019BC55
:102C000085E08093D5018091E10084FF29C0809107
:102C1000E20084FF25C084E089BD86E089BD89B5D6
:102C2000982F917080FFFBCF8091D8008F7D80938B
:102C3000D8008091E1008F7E8093E1008091E200D6
:102C40008F7E8093E2008091E20081608093E200B9
:102C50008091D601882309F43FC084E08093D50198
:102C60008091E10083FF27C08091E20083FF23C0B1
:102C70008091E100877F8093E10082E08093D5011D
:102C80001092D6018091E1008E7F8093E1008091C7
:102C9000E2008E7F8093E2008091E2008061809369
:102CA000E20042E060E080E00E9403028091F000D8
:102CB00088608093F000FF91EF91BF91AF919F9159
:102CC0008F917F916F915F914F913F912F910F90D5
:102CD0000FBE0F901F9018958091E30087FD93E041
:102CE0009093D501BDCFCDB7DEB7AA970FB6F894B4
:102CF000DEBF0FBECDBF84B7877F84BF0FB6F89409
:102D0000A8958091600088618093600010926000B7
:102D10000FBE80E890E00FB6F89480936100909326
:102D200061000FBE81E992E09093610180936001A0
:102D30001092E2001092E1008091E00081608093A7
:102D4000E0008091D8008F778093D80019BC8091E3
:102D500063008160809363001092B80180916300EA
:102D60008E7F8093630081E08093B8011092E2002F
:102D70001092E1008091D8008F778093D8008091E5
:102D8000D80080688093D8008091D8008F7D809390
:102D9000D80084E089BD86E089BD89B5282F2170DF
:102DA000722E80FFFACF1092D5011092D6011092A8
:102DB000D4011092D30142E060E080E00E9403025F
:102DC0008091E1008E7F8093E1008091E20081603C
:102DD0008093E2008091E20088608093E20080911D
:102DE000E0008E7F8093E0008091E2008460809319
:102DF000E20078948091D5018823A1F01091E90038
:102E00001F709091EC00892F817090FD80E8182B45
:102E10001092E9008091E80083FD0E94590A1F701A
:102E20001093E90082E084BD93E095BD9AEF97BDD1
:102E300080936E0085E60E94A20484E60E94A204AC
:102E400087E60E94A20486E30E94A20484E30E9413
:102E5000A2041092B9011092C7011092BA01109207
:102E6000C8010E9444098FE39CE90197F1F700C073
:102E700000000E9444098091C70180FF17C06FEFD6
:102E800082E290E00E94001B6FEF83E290E00E94DC
:102E9000001B6FEF84E290E00E94001B6FEF7FEF5A
:102EA00090E080E00E941E1B0E94050890E080E0F8
:102EB0000E94FA1A8B3E9E4F11F00E94E40982E2B2
:102EC00090E00E94F21A813209F0D9C283E290E0C8
:102ED0000E94F21A843009F0D2C284E290E00E948B
:102EE000F21A873109F0CBC290E080E00E94FA1A12
:102EF0008B3E9E4F11F00E94E40982E090E00E9418
:102F0000F21A8093C4010E94FC049093BC01809348
:102F1000BB0183E090E00E94F21A682F70E090E01D
:102F200080E00E94360453985B9A54985C9A89B169
:102F300083FB882780F94C9952C090E0892B8093BD
:102F4000C20180E091E09093BE018093BD0178E1E1
:102F5000C72ED12CE0E43E2EF4E04F2EA6E05A2EF0
:102F6000B4E06B2E8091D501853009F480C00E94B9
:102F70004409882359F08FB7F8944091DF015091AC
:102F8000E0016091E1017091E2018FBF8091C70182
:102F90009091C501891761F09827292F2170B22ED1
:102FA00090FD6FC0292F227091FD06C192FD09C1CD
:102FB0008091C8019091C601981709F40EC1982715
:102FC000292F217090FD01C191FD02C192FF05C121
:102FD000272D64E0B62E92E001E010E056C092E0AA
:102FE000ADCF8091D501843009F11092BF010FB6A9
:102FF000F894A895C09260000FBE3092600083B72D
:10300000817F846083BF83B7816083BF7894889514
:1030100083B78E7F83BF0FB6F894A8958091600028
:10302000886180936000109260000FBE8091D4018F
:103030008823E9F00E9444098091C7019091C8015A
:10304000892BA9F049BC59BC09B400FEFDCF809181
:10305000D8008F7D8093D8008091E00082608093BB
:10306000E0008091E00081FDFCCF0E944E0A80913B
:10307000D501853009F4B5CF0E944E0A0E94400464
:1030800076CF20E090E010E000E099A32AA38B2106
:1030900091E009F490E09BA30E9497028160782F51
:1030A0009DA38CA349A15AA16BA18DA10E94F714E5
:1030B000F801EB53FE4F8081B826B082E091C20147
:1030C000EE0FEE0FE093C20189B183FBEE24E0F82E
:1030D0004C9994C080E08E29E82BE093C201EF70F8
:1030E000F0E0EF5BFE4F80819091C101890F8093EA
:1030F000C10120E084304CF08091C0018F5F80934B
:10310000C0018AEA0E94B80821E08091C1018D3F88
:103110004CF48091C00181508093C00189EA0E94E3
:10312000B80821E08091C101082E000C990B64E0E1
:1031300070E00E94BD1A8093C101222359F08FB71D
:10314000F8944091DF015091E0016091E1017091AC
:10315000E2018FBF0E9440049091C301891721F0C2
:103160000E9440048093C3018091D501843009F00E
:10317000F9CE83E08093E9008091E80082FFF2CEEF
:103180008091E80090E085FF05C00E9489018823B6
:10319000C1F191E08091E8008B778093E80099235A
:1031A00009F4E0CEE981E150E33108F0A0C0F0E09D
:1031B000E65AF44E0C94D11A20E0972D52E0B52E29
:1031C00062CF44E0B42E92E05ECFB22E90E004CF06
:1031D000272D972D32E0B32EFFCE8FEF8EA38FA336
:1031E00018A60E9497028160782F9AA789A74EA1FE
:1031F0005FA168A58AA50E94F71460CF82E090E0E5
:103200006ACF00E210E0CE0101965C018091E800F7
:1032100085FD0AC08091E8008B778093E8000E94CA
:103220008901882399F3B5CF8091F100F50181934D
:103230005F010150110951F7ACCF1A8289E08B83ED
:1032400021C08A81823009F433C18330A9F08130F2
:1032500009F04DC02FB7F8946091DF017091E00143
:103260008091E1019091E2012FBF0E94D71A6B83F8
:103270007C838D839E8306C08091C7018B83809160
:10328000C8018C838091D501843009F06BCE1091F8
:10329000E9001F709091EC00892F817090FD80E80B
:1032A000182B82E08093E9008091E80080FF0DC038
:1032B00050E040E060E270E0CE0101960E94BA0169
:1032C0008091E8008E778093E8001F701093E900EA
:1032D00049CE8A81823059F46B817C818D819E81B7
:1032E0000E94D71A85E290E00E94001BCBCF8FEF9F
:1032F0008983C8CF4C816B818A810E940A059827F7
:10330000892798279E838D83BDCFAD80BE80BA2448
:10331000AB24BA248A8190E06CE070E00E94AC1A81
:103320008C018B8190E066E070E00E94AC1A080F7F
:10333000191F2C8130E0220F331F020F131F6B2D3A
:10334000C80186960E94001B6A2DC8018796CCCFC3
:103350000E943B0797CF80E18A8394CF83E08A83E2
:103360008AEA6DCF8A809B809824892498248E01D4
:103370000F5F1F4FAC80A00EB12EB11CC4018A5A42
:103380009F4F0A151B0509F47DCFFAEA8F16F3E06B
:103390009F0650F40E94F21AF8018483FFEF8F1AFF
:1033A0009F0A0F5F1F4FEACFF8011482F7CF0A81FF
:1033B0001B81102701271027CE0101964C01AC80FC
:1033C000A00EB12EB11CC8018A5A9F4FA016B1069B
:1033D00009F458CF0A3AE3E01E0720F4F4016481AF
:1033E0000E94001BFFEF8F1A9F0A0F5F1F4FEBCF4A
:1033F0000E948E0747CF6A8245CFAA80BB80BA243D
:10340000AB24BA248E010F5F1F4F8C80800E912E4B
:10341000911CC50186968016910609F433CF20E3EE
:10342000A216B10450F40E94F21AF8018483FFEF4F
:10343000AF1ABF0A0F5F1F4FECCFF8011482F7CF0E
:103440000A811B81102701271027CE0101964C010C
:10345000AC80A00EB12EB11CC80186960A151B05C2
:1034600009F410CF0033110520F4F40164810E94A7
:10347000001BFFEF8F1A9F0A0F5F1F4FEDCF60E019
:1034800085E290E00E94001B0E943B070E948E078D
:1034900061E282E290E00E94001B64E083E290E03F
:1034A0000E94001B67E184E290E00E94001B1CCD9B
:1034B00085E290E00E94F21A1B821C821D828E839C
:1034C000E1CE78941F921FB61F9211248F939F9381
:1034D000AF93BF938091DF019091E001A091E10152
:1034E000B091E2010196A11DB11D8093DF0190937F
:1034F000E001A093E101B093E201BF91AF919F91F0
:103500008F911F901FBE1F9018951F921FB61F927C
:1035100011248F939F93AF93BF938091BF0181112B
:1035200013C08091DF019091E001A091E101B09181
:10353000E2014196A11DB11D8093DF019093E0014E
:10354000A093E101B093E201BF91AF919F918F9160
:103550001F901FBE1F9018950024552704C0080E09
:10356000591F880F991F009729F076956795B8F332
:103570007105B9F7802D952F089597FB072E16F446
:10358000009407D077FD09D00E94DE1A07FC05D011
:103590003EF4909581959F4F0895709561957F4F6A
:1035A0000895EE0FFF1F0590F491E02D099469270F
:1035B000962769277827872778270895AA1BBB1B9A
:1035C00051E107C0AA1FBB1FA617B70710F0A61B23
:1035D000B70B881F991F5A95A9F780959095BC0144
:1035E000CD010895F999FECF92BD81BDF89A992732
:1035F00080B50895A8E1B0E042E050E00C94261BAD
:10360000262FF999FECF92BD81BDF89A019700B49B
:10361000021639F01FBA20BD0FB6F894FA9AF99A3B
:103620000FBE08950396272F0E94011B0E94001BC6
:10363000252F0E94011B242F0C94011B0196272F7C
:103640000E94011B0C94001BDC01CB01FC01F999C9
:10365000FECF06C0F2BDE1BDF89A319600B40D92DE
:1036600041505040B8F70895F894FFCF2607260739
:103670002F072F0731072F072F072F0726072607AA
:1036800036072F072F0736073C0B640BB70B640B6D
:10369000B70B970BCF0BB70BCB0CD80C181018101F
:1036A0008B108B10E5104F104F104F10FF10D511DD
:1036B000E611E6111D19211969197A198519A81938
:1036C00077197719771977197719AB19AE19B219D4
:0A36D000D719F819FB19FD19201A8B
:1036DA009402D8079302D407D00701818283E200BB
:1036EA00E900EA00B500B600B700CD008301CC00BE
:1036FA008A01920194012102230224022502260250
:10370A0027022A02B300B4006F00700065646736AE
:10371A003400FF0100010000FFFF0000010001FF6B
:10372A0000402232C800A6007400FA0113023302D4
:00000001FF
